:10000000903100280000080083018031200077082B
:10001000A0007808A1007908A2007A08A3002300B4
:1000200011082000A400230012082000A5002300CE
:1000300013082000A600230014082000A700850153
:1000400091308400001C2628111846288501913023
:100050008400801E2D28911A48282008F7002108C6
:10006000F8002208F9002308FA0024082300910070
:10007000200025082300920020002608230093007A
:1000800020002708230094000900200080311C294B
:1000900080319D29D3326E3269376710E430F430F5
:1000A000A0307239E13C203A6F10CD306937D0244E
:1000B0004310743979102D10251832328A06000049
:1000C0003918D3326310C337ED3AEE34E330F434E9
:1000D0006F372022613A61104139F2307910463988
:1000E000EF36A026E1346E28C921201F3E10000003
:1000F000CD3069372028C921203461376710753821
:100100002029E539653A20050D00D730693A69376D
:100110006710F437203A75396E106F37A039F93906
:10012000F4326D106133F4327210321A2034EF3A27
:100130007210F232F33274102D1025183232A039B9
:10014000E5316F37E4398A060001321A2034EF3A7C
:100150007210F33C733AE5362039E539653AA03B35
:10016000E13920326F3765050D00C3264410E637AC
:1001700072105538E430F434EE33202AE936651035
:10018000D232E332693B653220103E1F20005538E1
:10019000E430F4326410CE327710D434ED32201FC4
:1001A0003E1000018A06F33C733AE5365F39E539C3
:1001B000653A5F31F92FE336641DA0214D222033CB
:1001C0006F392029E539653AF434EE33203AE832C4
:1001D000A039613A6536EC34F43220103E1F20001D
:1001E0008A06F33C733AE5365F39E539653A5F31A3
:1001F000F92FE336641DA026E1346E28C9212C10A6
:10020000C3274D28C9212C10332BB31131102C10CA
:100210005527D222C7113110613965104F27201F91
:100220003E108A060000D2307710D6376C3AE133A0
:10023000E51E2533203E2000960180309700960170
:10024000F208031D2D297D0B2729FD012D292100F1
:100250000D1122000D112B29200072083A3C031CBD
:100260003329F20A3529F201F30A73083C3C031DD5
:100270003B29F301F40A7408183C031D4129F401D9
:10028000F50A75081F3C031D58297608043C03191C
:1002900055297608063C031955297608093C0319A7
:1002A000552976080B3C031D58290130F500F60A44
:1002B0007508203C031D7629760B5F297329760883
:1002C000033C031973297608053C03197329760842
:1002D000073C031973297608083C0319732976082B
:1002E0000A3C031D76290130F500F60A75081D3C0D
:1002F000031D81297608023C031D81290130F50088
:10030000F60A7508203C031D8D2976080C3C031D58
:100310008D290130F500F600FB0A21000D112200A5
:100320000D152000A80A0319A90A21000D112200A9
:100330000D112000111080312D28911EC029103080
:1003400071078400203085000318850A0508210004
:10035000EF000408EE002000911EAC2923001D08C8
:10036000F0001908F800F01CB7291D121D16210015
:100370006F0885006E08840078088000F10A20006C
:10038000911280312D28C2376F3A69376710743463
:100390006510F232F3327410D02443050D00332B74
:1003A000B3113110EC34EE32203A7539EE3264106C
:1003B0004F2720050D00332BB3113110EC34EE32F2
:1003C000203A7539EE3264104F2346108A06000138
:1003D000352BB0113210EC34EE32203A7539EE3252
:1003E00064104F2720050D00352BB0113210EC346E
:1003F000EE32203A7539EE3264104F2346108A06E9
:100400000001352BB0113010EC34EE32203A753942
:10041000EE3264104F2720050D00352BB01130103F
:10042000EC34EE32203A7539EE3264104F23461028
:100430008A0600015537F232E7113110EC34EE3202
:10044000203A7539EE3264104F2720050D005537DC
:10045000F232E7113110EC34EE32203A7539EE32D7
:1004600064104F2346108A0600015537F232E71117
:100470003210EC34EE32203A7539EE3264104F27E8
:1004800020050D005537F232E7113210EC34EE3210
:10049000203A7539EE3264104F2346108A06000167
:1004A0005537F232E7113310EC34EE32203A753919
:1004B000EE3264104F2720050D005537F232E71158
:1004C0003310EC34EE32203A7539EE3264104F239B
:1004D00046108A06000131195610EC34EE32203AEB
:1004E0007539EE3264104F2720050D003119561072
:1004F000EC34EE32203A7539EE3264104F23461058
:100500008A060001D33C733AE5362039E539653A6D
:10051000A031EF36ED306E322039E531E932F63276
:10052000641720050D0021008D1322008D13083063
:10053000F8009A2A0000F817AD2AF8132100D80C09
:10054000220003188D17031C8D137817AD2A78131A
:10055000F80B9E2AAB2A00008D1710308400840B04
:10056000AF2A0000F81B9D2A781BA72A200008004C
:100570000B088B1323009517151400000000891B2E
:100580008B1713087F390319042B2100BD002300AA
:1005900011082100BE00230012082100BF003D0801
:1005A000D8002000932221003E0823009100210062
:1005B0003F08230092000B088B13951715140000B9
:1005C0000000891B8B17130D140D7F390319042BA1
:1005D0002100BD00230011082100BE0023001208E5
:1005E0002100BF003D08D8002000932221003E08D2
:1005F0002300910021003F0823009200910A031973
:10060000920A2000B82A23002000080021003B0B9A
:10061000112B8F1322008F1701302000AD00162BF5
:1006200021008F1322008F132000AD01080021004C
:100630003B0B212B0F1322000F1720002C14262B0D
:1006400021000F1322000F1320002C10080020306F
:1006500085006E308400000803193C2B0530F8003B
:10066000F701F70B312BF80B302B2E30F700F70B7F
:10067000372B3A2B800B2E2B080021003B0B502BE5
:100680000E1222000E1605302100BE002000272386
:1006900021008F1022008F142000AC175E2B210048
:1006A0008F1022008F1005302100BE00200027236C
:1006B00021000E1222000E122000AC1308002100AF
:1006C0003B0B722B8F1122008F1505302100BE00CD
:1006D0002000272321000F1022000F1420002C17C8
:1006E000802B21000F1022000F1005302100BE00CA
:1006F0002000272321008F1122008F1120002C13AE
:10070000080021003B0B942B0F1122000F15053020
:100710002100BE002000272321008E1122008E150B
:100720002000AC16A22B21008E1122008E11053064
:100730002100BE002000272321000F1122000F11ED
:100740002000AC12080021003B0BB62B0D1022003C
:100750000D1405302100BE002000272321000D12BA
:1007600022000D162000AC14C42B21000D12220013
:100770000D1205302100BE002000272321000D109E
:1007800022000D102000AC10080021003B0BCF2BE5
:100790000E1122000E1520002C16D42B21000E1154
:1007A00022000E1120002C12080021003B0BDF2B31
:1007B0008E1222008E162000AC15E42B21008E1222
:1007C00022008E122000AC11080021003B0BEF2B01
:1007D0008D1122008D1520002C15F42B21008D1178
:1007E00022008D1120002C110800C330230091003D
:1007F000013092002000B822210011149116C0305F
:100800008B0487302000980099019815960180305C
:100810009700960121001E169E161E139E171D148A
:100820001E109E101E112F3023008C0007309000E8
:1008300000308D008F0001302100BB002000062316
:1008400001302100BB002000172301302100BB0034
:1008500020003D2301302100BB0020005F23210048
:10086000BB012000812301302100BB002000A32315
:100870002100BB012000C5232100BB012000D5239E
:1008800001302100BB002000E52390316D28720863
:100890007C0203194B2C7208FC0090317028210057
:1008A0008D1222008D168530F700F70B552C003085
:1008B000F80021001D08833978049D000F30F800EE
:1008C0001F08F03978049F001A30F700F70B662CE8
:1008D00000009D149D186A2C1C08FA001B08F800E3
:1008E0001C08F900200008000430F80021001D0851
:1008F000833978049D000F30F8001F08F039780420
:100900009F001A30F700F70B832C00009D149D18F0
:10091000872C1B08C4001C08C5004408F8004508C3
:10092000F900200008000830F80021001D08833974
:1009300078049D000F30F8001F08F03978049F00FC
:100940001A30F700F70BA22C00009D149D18A62C5E
:100950001C08FA001B08F8001C08F9002000080019
:100960000C30F80021001D08833978049D000F30F9
:10097000F8001F08F03978049F001A30F700F70BD1
:10098000BF2C00009D149D18C32C1C08FA001B08E6
:10099000F8001C08F900200008001C30F8002100B5
:1009A0001D08833978049D000F30F8001F08F039C6
:1009B00078049F001A30F700F70BDC2C00009D1420
:1009C0009D18E02C1C08FA001B08F8001C08F90010
:1009D000200008001030F80021001D088339780439
:1009E0009D000F30F8001F08F03978049F001A307E
:1009F000F700F70BF92C00009D149D18FD2C1C0826
:100A0000FA001B08F8001C08F90020000800143048
:100A1000F80021001D08833978049D000F30F8008C
:100A20001F08F03978049F001A30F700F70B162DD5
:100A300000009D149D181A2D1C08FA001B08F800D0
:100A40001C08F900200008001830F80021001D08DB
:100A5000833978049D000F30F8001F08F0397804BE
:100A60009F001A30F700F70B332D00009D149D18DE
:100A7000372D1C08FA001B08F8001C08F90020009C
:100A8000080021004D08F8014C0203184A2D4C08BB
:100A9000F700562DF7010830CE00CC0DF70D4D08AC
:100AA00077020318F700F80DCE0B4D2D200008003B
:100AB00020302100451E3030C8004408F700C41F14
:100AC000692DF709F70A7708C4002D30C800C5174B
:100AD00045144408CC006430CD002000412577083F
:100AE0002100C40030307807C9004408CC000A3027
:100AF000CD0020004125303077072100CB00303079
:100B00007807CA004808F7003030490203198C2DD5
:100B1000C514C51B4515A02D4519A02D4808C900B1
:100B2000C518972D30304A0203199A2D4514C51B5C
:100B3000C514A02D031D4514031DA02D4908CA008E
:100B40004519A72DC518AC2D4518B12DB62D48084F
:100B5000D8002000932221004908D80020009322C9
:100B600021004A08D8002000932221004B08D80019
:100B70002000932208002100580803192C2EE100C0
:100B80005C0803192C2EE1070318CD2D7F30E102FC
:100B9000031C2C2E03192C2ED12D8130E1070318B4
:100BA0002C2E6108F700F801F901FA015908E50057
:100BB000E5175A08E4005B08E3001830E100E201A1
:100BC000631CFA2D5F08FA07031CEC2DF90A031DBC
:100BD000EC2DF80A0319E2175E08F907031CF32D40
:100BE000F80A0319E2175D08DA00DA175A08F8075D
:100BF0000318E217E20DF80CF90CFA0CE50CE40C02
:100C0000E30C0310E10BDF2D0130F70703182C2E46
:100C1000F81B112EE50DFA0DF90DF80DF703031968
:100C20002C2EE51F222EFA0A031D222EF90A031D7F
:100C3000222EF80A031D222EF80CF90CFA0CF70AE2
:100C400003192C2E5908E2005D08E206E21F2A2E45
:100C5000F817302EF813302EF701F801F901FA01D8
:100C6000200008000B088B132300951715140000B3
:100C70000000891B8B170318652E13087F3921008C
:100C8000C600230011082100C7002300120821001C
:100C9000C8004608D80020009322210047082300FE
:100CA000910021004808230092000B088B13951730
:100CB000151400000000891B8B172100C40B612E46
:100CC000632E2300652E882E2300130D140D7F390B
:100CD0002100C600230011082100C70023001208CC
:100CE0002100C8004608D8002000932221004708B0
:100CF000230091002100480823009200910A031963
:100D0000920A03102100C40B862E882E2000322E5A
:100D1000200008008318902E203085009130840038
:100D2000F701F801F901FA012100E101E201E30113
:100D3000E4015F085E045D045C040319CF2E2030DB
:100D4000E5000310D80DD90DDA0DDB0DE10DE20D34
:100D5000E30DE40D5F086402031DB82E5E08630214
:100D6000031DB82E5D086202031DB82E5C086102E7
:100D7000031CC92E5C08E1025D08031C5D0FE20242
:100D80005E08031C5E0FE3025F08031C5F0FE402B2
:100D90000314F70DF80DF90DFA0DE50BA12E6108FE
:100DA00080006208813F6308823F6408833F20001F
:100DB000080004082100D0004808D2000319FB2EC7
:100DC0004708DB004608DA004508D9004408D80087
:100DD000DF01DE012030DD008230DC002000BB2599
:100DE0007A082100C7007908C6007808C50077088E
:100DF000C400D20BE02E4708DB004608DA004508A5
:100E0000D9004408D8005808B63CD800FA0159085F
:100E1000DC00D9170310D90CDA0CDB0CFA0CF90C36
:100E2000F80CF70CD80B0A2FDC1F212FF709F80953
:100E3000F909FA09F70A0319F80A0319F90A031953
:100E4000FA0A7A08C7007908C6007808C50077084A
:100E5000C400C71F382FD003D016C409C509C6095E
:100E6000C709C40A0319C50A0319C60A0319C70A20
:100E70003B30D7009A30D600CA30D500D4010A30B2
:100E8000D20048080319D00A83142030850074303A
:100E900084004708DB004608DA004508D90044080A
:100EA000D8005708DF005608DE005508DD0054085A
:100EB000DC0020008A267808F708031D762F210021
:100EC000480A5202031D662F2000762F500803198E
:100ED000792F0F39520203196F2F0318B12FD01B2E
:100EE000B12F501B792F2030AB2F20002030210054
:100EF000D005D01E892FD0124808031DD0037708D3
:100F0000D0002D30D8002000932221005008F70097
:100F1000D00148085202031D992F7708D0002E30C7
:100F2000D8002000932221005008F7002030D0057F
:100F300000303030D01EAB2FD0124808031DD00334
:100F40007708D0002D30D8002000932221005008CF
:100F5000F700D0013030F7077708D800200093223F
:100F6000210083105708DB005608DA005508D90025
:100F70005408D800DF01DE01DD010A30DC0020006A
:100F80008A267A082100D7007908D6007808D5008B
:100F90007708D400D20B442F883120009B2A2100EF
:100FA000C61BE42F0F30F700450EF7050A30770215
:100FB0000318DD2F3030F707DF2F4608F7077708D3
:100FC000D8002000932221000F30C5050A304502C9
:100FD0000318EC2F3030EE2FC6134608C50745081E
:100FE000D800200093220800111EF42F23009A003D
:040FF00020000800D5
:1010000080314F24883179082100A9007808A80090
:10101000803120007424883179082100AB007808E1
:10102000AA00803120009324883179082100AD0086
:101030007808AC0080312000B02488317908210084
:10104000AF007808AE0080312000CD2488317908C7
:101050002100B1007808B00080312000EA248831F6
:1010600079082100B3007808B200803120000725FC
:10107000883179082100B5007808B400803120005B
:101080002425883179082100B7007808B600B030EF
:101090002000D400A030D5007B08D6007608D70009
:1010A0007508D8007408D9007308DA007208DB00EC
:1010B00021002908C400C501FA0144082000DC0011
:1010C0002100FA0128082000DD0021002B08C400BF
:1010D000C501FA0144082000DE002100FA012A08B7
:1010E0002000DF0021002D08C400C501FA014408DA
:1010F0002000E0002100FA012C082000E10021007E
:101100002F08C400C501FA0144082000E2002100B4
:10111000FA012E082000E30021003308C400C501B5
:10112000FA0144082000E4002100FA0132082000FE
:10113000E50021003508C400C501FA01440820007B
:10114000E6002100FA0134082000E70021003708FA
:10115000C400C501FA0144082000E8002100FA019A
:1011600036082000E90021003108C400C501FA0159
:1011700044082000EA002100FA0130082000EB00BA
:101180002C08EC002D08ED00B1302100A700323012
:10119000D800803120009322883130302100D800DF
:1011A00080312000932288317B082100C400013067
:1011B000C50080312000582588312F302100D8000B
:1011C000803120009322883176082100C40001304C
:1011D000C50080312000582588312F302100D800EB
:1011E000803120009322883175082100C40001302D
:1011F000C500803120005825883120302100D800DA
:10120000803120009322883174082100C40001300D
:10121000C50080312000582588313A302100D8009F
:10122000803120009322883173082100C4000130EE
:10123000C50080312000582588313A302100D8007F
:10124000803120009322883172082100C4000130CF
:10125000C500803120005825883120302100D80079
:1012600080312000932288317C302100D8008031E9
:1012700020009322883120302100D80080312000C6
:10128000932288315C082100BB0020005D0821000A
:10129000BA003B08C5003A08C4008E30F700450884
:1012A000F8004408F900FA01F808031D61297908DB
:1012B000F800F9010830F702F808031D6129F70169
:1012C00069290310F81B6829F90DF80DF703612946
:1012D000F8137A08DB007908DA007808D900770873
:1012E000D8003330DF00DE005330DD008030DC001A
:1012F00080312000BB2588317A082100C700790899
:10130000C6007808C5007708C4004708DB00460817
:10131000DA004508D9004408D800DF01DE0140307A
:10132000DD008030DC0080312000BB2588317A0868
:101330002100C7007908C6007808C5007708C400F6
:101340004708CB004608CA004508C9004408C80041
:10135000CF01CE01CD018B30CC0048080319722A91
:10136000D6004C080319722AD602031CBC297F3010
:10137000D6070318722AC2298130D602031C722AAA
:101380000319722A5608F700F801F901FA01D5018C
:101390004908D400D4174A08D3004B08D2001930AA
:1013A000D6004F08D2020318E5290130D3020318F2
:1013B000E529D4020318E529D5020318E529D50A41
:1013C000D40AD30A4F08D207172A4E08D3020318AB
:1013D000002A0130D4020318002AD5020318002A7B
:1013E000D50AD40A4E08D3074F08D207031C172A80
:1013F000D30A031D172AD40A031D172AD50A172A50
:101400004D088038D4020318162A0130D50203187B
:10141000162AD50A4D088038D4074E08D307031C76
:10142000F429D40A031DF429D50AF4297A14D60B19
:101430001A2A252A0310D20DD30DD40DD50D031071
:10144000FA0DF90DF80DD70DD129571C2D2A0310CF
:10145000F80CF90CFA0CD70C302AF7030319722A8E
:10146000D71B592A0310D20DD30DD40DD50D4F081B
:10147000D2020318452A0130D3020318452AD402A8
:101480000318452AD502031C682A4E08D302031804
:10149000502A0130D4020318502AD502031C682AAE
:1014A0004D088038D4020318592A0130D502031C94
:1014B000682AFA0A031D682AF90A031D682AF80A2D
:1014C000031D682AF70A0319722AF80CF90CFA0CA2
:1014D0004908D6004D08D606D61F702AF817762A76
:1014E000F813762AF701F801F901FA017A08BF002A
:1014F0007908BE007808BD007708BC0013302300CF
:1015000091000130920003100C302100C4008031A2
:101510002000322688318930840021003F08C7002E
:101520003E08C6003D08C5003C08C4000230C800A3
:1015300080312000D92E883120302100D800803120
:101540002000932288317C302100D8008031200097
:101550009322883120302100D8008031200093224E
:1015600088312100C0014008233C031CD12A3430BB
:1015700040078400203085000318850A0008C40055
:10158000C5003730C60080312000CF278831203099
:101590002100D80080312000932288312100C00A28
:1015A000B32A0A30D80080312000932288310D30D0
:1015B0002100D80080312000932288319031792891
:1015C0002100BF013E083F020318EF2A3F083C07F5
:1015D000840000303D3D85008001BF0AE22A2000E2
:1015E0000800780821003B08CC006430CD00803131
:1015F00020004125883177082100BB007808303071
:10160000031D092BBC1C142BBC19142B3C1A2030B5
:101610000C2BBC113C123C14F8077808D800803120
:1016200020009322883121003B08CC000A30CD00F5
:10163000803120004125883177082100BB007808DF
:101640003030031D292BBC19312B3C1C312B3C1A8B
:101650002030F8077808D8008031200093228831A4
:1016600021003030BB073B08D80080312000932296
:10167000883108003108703C031DFD2B0A30210021
:10168000D80080312000932288310D302100D8000D
:101690008031200093228831B53023009100003042
:1016A000920080312000B822883120302100BD0016
:1016B0003430BC002430BE002000E022B030D40022
:1016C0007030D500B1302100A700BA013A08233CA0
:1016D000031C7B2B34303A0784002030850003182C
:1016E000850A0008BB003B0880312000F4278831C0
:1016F0002100BA0A662B20003208FB003308F600EE
:101700003408F5003508F4003608F3003708F20015
:1017100020302100BD001030BC002430BE0020006D
:10172000E022F101C73023009100003092008031A7
:101730002000B82288317B082100BB001B30BC0090
:101740002000F1222D302100D8008031200093228A
:10175000883176082100BB001B30BC002000F1223C
:101760002D302100D8008031200093228831750867
:101770002100BB001B30BC002000F1225F302100A3
:10178000D80080312000932288315F302100D800BA
:10179000803120009322883174082100BB001B3067
:1017A000BC002000F1223A302100D8008031200016
:1017B0009322883173082100BB001B30BC0020003D
:1017C000F1223A302100D800803120009322883164
:1017D00072082100BB001B30BC002000F1220A303F
:1017E0002100D80080312000932288310D30210063
:1017F000D800803120009322883190319C28310814
:10180000A03C031D412D8031032088310A30210086
:10181000D80080312000932288310D302100D8007B
:101820008031200093228831603023009100003005
:10183000920080312000B82288312100BA013A0894
:10184000233C031C3D2C10303A07840020308500D7
:101850000318850A0008BC00C5003730C600803177
:101860002000CF27883120302100D800803120008F
:10187000932288312100BA0A1F2C0A30D800803107
:101880002000932288310D302100D80080312000C3
:1018900093228831803103208831803103208831C0
:1018A00020302100BD003430BC002430BE002000B8
:1018B000E02280314F24883179082100A90078087E
:1018C000A800803120007424883179082100AB0001
:1018D0007808AA00803120009324883179082100FB
:1018E000AD007808AC0080312000B0248831790840
:1018F0002100AF007808AE0080312000CD2488316F
:1019000079082100B1007808B00080312000EA2475
:10191000883179082100B3007808B20080312000B6
:101920000725883179082100B5007808B400803196
:1019300020002425883179082100B7007808B600F6
:10194000B0302000D400A030D5007B08D600760847
:10195000D7007508D8007408D9007308DA00720837
:10196000DB0021002908BC00BD01FA013C08200071
:10197000DC002100FA0128082000DD0021002B08EE
:10198000BC00BD01FA013C082000DE002100FA0184
:101990002A082000DF0021002D08BC00BD01FA014B
:1019A0003C082000E0002100FA012C082000E100A2
:1019B00021002F08BC00BD01FA013C082000E20014
:1019C0002100FA012E082000E30021003308BC00AA
:1019D000BD01FA013C082000E4002100FA013208B0
:1019E0002000E50021003508BC00BD01FA013C08DB
:1019F0002000E6002100FA0134082000E700210061
:101A00003708BC00BD01FA013C082000E8002100B5
:101A1000FA0136082000E90021003108BC00BD01B0
:101A2000FA013C082000EA002100FA0130082000F9
:101A3000EB002C08EC002D08ED00B1302100A700D0
:101A4000BA013A08233C031C362D34303A0784008F
:101A5000203085000318850A0008BC003C0880314E
:101A60002000F42788312100BA0A212D2030BD0042
:101A70001030BC002430BE002000E022F101A9019A
:101A8000A80190319F28D2302300910000309200AD
:101A900080312000B822883120302100BD00103074
:101AA000BC002430BE002000E022F1012100BB0177
:101AB00080312000062388312100BB0180312000C5
:101AC000172388312100BB01803120003D2388315C
:101AD0002100BB01803120005F2388312100BB0140
:101AE00080312000812388312100BB01803120001A
:101AF000A32388312100BB0180312000C523883118
:101B00002100BB0180312000D52388312100BB0199
:101B100080312000E52388312100BA013A08043CD5
:101B2000031C9F2D0430BB00FA30BE008031200022
:101B3000272388312100BB0B942DBA0A8E2D01304A
:101B4000BB00803120000623883101302100BB001A
:101B5000803120001723883101302100BB00803103
:101B600020003D23883101302100BB00803120005E
:101B7000C5238831F030230091000030920080317D
:101B80002000B82288319031A22A7408173C031D26
:101B90005B2E73083B3C031D5B2EF208031D5B2E7E
:101BA000B030D400B1302100A700A2302000D50011
:101BB0008031032088310A302100D8008031200094
:101BC000932288310D302100D800803120009322EB
:101BD000883114302100BA00C830BB00F101BC01CB
:101BE0003A083C020318472E01303C07BE004A3039
:101BF0002300910000309200031024302100C40023
:101C0000803120003226883121003E08C400013096
:101C1000C50080312000582588310A302100D800C5
:101C200080312000932288310D302100D80080318E
:101C30002000932288312100BD013D08233C031C74
:101C4000322E34303D078400203085000318850A89
:101C50000008BE003E0880312000F42788312100B2
:101C6000BD0A1D2EF1013B08BE0080312000272354
:101C700088313008B03C031D442E5308B13C031D8D
:101C8000442E2100472E20002100BC0AF02D0430F4
:101C9000BA00FA30BE0080312000272388312100AD
:101CA000BA0B492E2030BD001030BC002430BE00DD
:101CB0002000E022F1019031A52AF408031D242F11
:101CC000F308031D242FF208031D242F8031032065
:101CD00088310A302100D8008031200093228831D9
:101CE0000D302100D800803120009322883121005E
:101CF000BB0180312000062388312100BB018031E7
:101D00002000172388312100BB01803120003D23B2
:101D100088312100BB01803120005F238831210000
:101D2000BB0180312000A32388312100BB01803119
:101D30002000C52388312100BB0180312000D5233C
:101D400088312100BB0180312000E523883121004A
:101D5000BA013A08043C031CE12E0430BB00FA30FF
:101D6000BE0080312000272388312100BB0BAF2E1D
:101D700001303A07BB00853023009100003092000B
:101D8000031030302100C400803120003226883119
:101D900021003B08C4000130C500803120005825D7
:101DA00088319F30230091000030920003100A30E8
:101DB0002100C40080312000322688312100BA0A77
:101DC000A92E0130BB00803120000623883101306C
:101DD0002100BB0080312000172388310130210011
:101DE000BB00803120003D23883101302100BB0041
:101DF000803120005F23883101302100BB00803119
:101E00002000A323883101302100BB008031200055
:101E1000C523883101302100BB0080312000D5234B
:101E2000883101302100BB0080312000E52388315A
:101E3000A530230091000030920080312000B822AC
:101E400088318031032088319031A82A2908063C46
:101E50000318572FFF3A031D312F2808073C03189A
:101E6000572F7830230091000030920080312000FD
:101E7000B8228831A901A801AA0A0319AB0A2100D6
:101E8000BB01803120000623883114302100BA00C4
:101E9000FA30BE0080312000272388312100BA0BA0
:101EA000482F0130BB00803120000623883190315B
:021EB000AB2A5B
:10200000A901A801AB01AA01AC01AD01AE01AF016C
:102010002100A901A801AB01AA01AD01AC01AF01EA
:10202000AE01B101B001B301B201B501B401B70114
:10203000B601F00123009F110C309B00A2309E00DE
:1020400090309D0021008D1322008D17F101013089
:10205000F200F301F401F500F6001530FB00210059
:10206000B901B8010130FD0023008C018D018E0102
:102070008F019001220092019101502824344034B4
:102080003034003401348034B0341B34C034003474
:1020900007344034A034003401348034B134003487
:1020A000103085003E30840085171200F700003A9A
:1020B00003196A281200F800F81B62280F398700FC
:1020C00012008600781B1200781F12001E00F70B0A
:1020D0006428552880312000F52B90318031472C21
:1020E00090312F08313C03187A28F101AF01883173
:1020F00000289031AF0AAE08031D922873081E3CD9
:102100000318922801302100BB0080312000C52334
:10211000903101302100BB0080312000D523903167
:102120000130AE003008B03C031DA0285308B13C7C
:10213000031DA02888313A2B90318831FF2B903134
:102140003008B03C031DC3283108E13C031DC328FF
:1021500001302100BB00803120003D239031CF3081
:10216000230091000130920080312000B82290318C
:1021700020302100BD001030BC002430BE0088316A
:102180002000E02290313008B03C031DE5283108E2
:10219000E03C031DE5282100BB01803120003D23E8
:1021A0009031DB302300910001309200803120001B
:1021B000B822903120302100BD001030BC00243006
:1021C000BE0088312000E02290313008B03C031D71
:1021D00008293108E23C031D082901302100BB0019
:1021E000803120005F239031E830230091000130DE
:1021F000920080312000B822903120302100BD00B3
:102200001030BC002430BE0088312000E022903124
:102210003008B03C031D2A293108E33C031D2A295C
:102220002100BB01803120005F239031F430230076
:1022300091000130920080312000B822903120308E
:102240002100BD001030BC002430BE0088312000C9
:10225000E02290313008B03C031D4D293108A53CE7
:10226000031D4D2901302100BB0080312000812356
:102270009031013023009100023092008031200023
:10228000B822903120302100BD001030BC00243035
:10229000BE0088312000E02290313008B03C031DA0
:1022A0006F293108A63C031D6F292100BB01803135
:1022B0002000812390310D302300910002309200E4
:1022C00080312000B822903120302100BD00103034
:1022D000BC002430BE0088312000E022903130085C
:1022E000B03C031D92293108B13C031D92290130F5
:1022F0002100BB0080312000C52390311A3023001B
:1023000091000230920080312000B82290312030BC
:102310002100BD001030BC002430BE0088312000F8
:10232000E02290313008B03C031DB4293108B03CA4
:10233000031DB4292100BB0180312000C523903149
:102340002730230091000230920080312000B82213
:10235000903120302100BD001030BC002430BE0080
:1023600088312000E02290313008B03C031DD7298D
:102370003108B23C031DD72901302100BB00803158
:102380002000D52390313530230091000230920097
:1023900080312000B822903120302100BD00103063
:1023A000BC002430BE0088312000E022903130088B
:1023B000B03C031DF9293108B33C031DF929210064
:1023C000BB0180312000D5239031423023009100A1
:1023D0000230920080312000B8229031203021005C
:1023E000BD001030BC002430BE0088312000E02247
:1023F00090313008B03C031D1C2A3108B43C031D49
:102400001C2A01302100BB0080312000E5239031DF
:102410005030230091000230920080312000B82219
:10242000903120302100BD001030BC002430BE00AF
:1024300088312000E02290313008B03C031D3E2A54
:102440003108B53C031D3E2A2100BB01803120002C
:10245000E52390315D3023009100023092008031FD
:102460002000B822903120302100BD001030BC0087
:102470002430BE0088312000E02290313008B03C8A
:10248000031D612A3108C13C031D612A013021006E
:10249000BB0080312000A32390316B3023009100DA
:1024A0000230920080312000B8229031203021008B
:1024B000BD001030BC002430BE0088312000E02276
:1024C00090313008B03C031D832A3108C03C031D05
:1024D000832A2100BB0180312000A3239031763074
:1024E000230091000230920080312000B822903108
:1024F00020302100BD001030BC002430BE008831E7
:102500002000E02290313008B03C031D8B2A3108B6
:10251000FA3C03198A2A3008B03C031DA32A31086B
:10252000A43C031DA32A5308B13C031DA32A8230F7
:10253000230091000230920080312000B8229031B7
:102540008831432D90318831C52D903188315D2EF1
:1025500090318831262F903164302100BE008031C7
:0E2560002000272390310130FD006E2863001B
:020000040001F9
:04000E00C23F231EAC
:00000001FF
;PIC16F1789
;CRC=463D  CREATED="05-Aug-24 10:47"
