:0600000090319C2E00006F
:0800080083018031200077081C
:10001000A0007808A1007908A2007A08A300850151
:1000200091308400801E1628911A1F282008F7009E
:100030002108F8002208F9002308FA00090080319D
:1000400021282B3024078400203085000318850ADE
:1000500005082500D3000408D2002000911E2E2898
:1000600023001D082000A60023001908F800200026
:10007000A61C3E2823001D121D1620002500530833
:100080008500520884007808800001302000240791
:100090001F39A40091128031162821008F122200EE
:1000A0008F1621000E1122000E1521008F10220044
:1000B0008F1021000F1122000F1121008F1122003B
:1000C0008F1121001E169E161E139E131D141E1046
:1000D0009E101E11203023008C0001309000003053
:1000E0008D008F00C0308B042100911690312000CC
:1000F000FC2E2130850038308400000803198E283A
:100100000530F800F701F70B8328F80B82282E3012
:10011000F700F70B89288C28800B80280800220024
:100120008F1064302300E8002000792022000F1196
:1001300064302300E8002000792022008F11643011
:100140002300E8002000792008001030F80021008A
:100150001D08833978049D000F30F8001F08F0391E
:1001600078049F000D30F700F70BB4289D149D18FC
:10017000B7281C08FA001B08F8001C08F90020002A
:1001800008008318C7282130850040308400F7011B
:10019000F801F901FA012400A001A101A201A301C3
:1001A00023006F086E046D046C04031923292030AA
:1001B0002400A40003102300E80DE90DEA0DEB0D67
:1001C0002400A00DA10DA20DA30D23006F08240093
:1001D0002302031DFB2823006E0824002202031DB6
:1001E000FB2823006D0824002102031DFB282300A7
:1001F0006C0824002002031C1C2923006C08240026
:10020000A00223006D08031C6D0F07290A29240092
:10021000A10223006E08031C6E0F0F29122924006F
:10022000A20223006F08031C6F0F17291A2924004C
:10023000A302230003142400F70DF80DF90DFA0DA5
:10024000A40BDA2823002400200880002108813F25
:100250002208823F2308833F200008002300BC01BE
:10026000BB01BA01B901BD013D08133C031C48297B
:100270002000A52078082300B9077908BA3D00308E
:10028000BB3DBC3D0D30F700F70B4429BD0A3429B6
:1002900083103C08EB003B08EA003A08E900390803
:1002A000E800EF01EE01ED011430EC002000C12068
:1002B00078082300BF007708BE003E08F8003F081A
:1002C000F90090312000132F2300C8014808173C83
:1002D000031C7429ED304807840020308500031882
:1002E000850A8001C80A6629C0302200D400013086
:1002F0002300C8004808163C031C8829D43048074E
:100300008400203085000318850A8001C80A7A29F4
:100310002200EB01C130EC002300C108031DB3290A
:10032000C3014308153C031CB22901304307D43EE6
:10033000F8002030FA000318FA0A7808C8007A0892
:10034000C900143043078400203085000318850A53
:100350000008CA0049088500480884004A0880004F
:10036000C30A9129D429410BC82950302200D50055
:1003700020302300C900D630C8004808840049084E
:1003800085002000270880002808813FD529230008
:100390004108023C031DD42959302200D500230016
:1003A00042082200D600230020002300C8010130AB
:1003B000C9004908163C031CE829D43049078400C9
:1003C000203085000318850A0008C806C90AD92903
:1003D00048082200EB002300C4014408183C031C19
:1003E000222AD43044078400203085000318850A6F
:1003F0000008C8004808C90021008D1022008D1097
:100400000830F800032A0000F817162AF813230012
:10041000C90C220003188D14031C8D107817162A9E
:100420007813F80B072A142A00008D1484308400F6
:10043000840B182A0000F81B062A781B102A2300B8
:10044000C40AED2920000800B308031D7D2A3208E4
:10045000033C031C7D2A031D372A31080D3C031C75
:100460007D2A031D372A30083F3C031C7D2A0D19C5
:10047000742AED302F078400203085000318850A88
:1004800005082300C7000408C60021000D15200040
:100490000D19482A0830F7002300C801F717602A11
:1004A000F713602A031020000D1903142300C80C51
:1004B0007717602A7713F70B522A4808F8006C2A3E
:1004C0008430F71B2430F800F80B642A672AF71BE6
:1004D000502A771B5A2A522A47088500460884006A
:1004E000780880002000AF0A0130B0070318B10A75
:1004F0000319B20A0319B30A242AAF01B301B201E6
:10050000B101B001080022008F1064302300E80020
:100510002000792022000F1564302300E80020001D
:10052000792022008F1164302300E8002000792018
:10053000080022008F15B4302300E8002000792045
:1005400022008F113C302300E800200079200800B1
:1005500022008F153C302300E80020007920220083
:100560008F113C302300E800200079200800220091
:100570008F11B4302300E800200079200800992270
:10058000A8229922B72208009922A822992299220A
:10059000B7220800A822A8229922B722080099228F
:1005A000B7220800A822B72208009922A82299227F
:1005B000A822B7220800A822A822A822A822B7228F
:1005C0000800A8229922A822A822B722080099226E
:1005D00099229922B7220800A82299229922A822BA
:1005E000B7220800A8229922B7220800A82299223F
:1005F000A822B72208009922A822A822B722080020
:100600002300C8080319082B4808303C031D112B90
:10061000200099229922992299229922B722BA2C54
:100620002300480B142B182B4808313C031D212BA9
:100630002000A8229922992299229922B722BA2C25
:1006400023004808023C0319292B4808323C031DAB
:10065000322B2000A822A822992299229922B7227F
:10066000BA2C23004808033C03193A2B4808333CB2
:10067000031D432B2000A822A822A82299229922F8
:10068000B722BA2C23004808043C03194B2B480816
:10069000343C031D542B2000A822A822A822A82203
:1006A0009922B722BA2C23004808053C03195C2B79
:1006B0004808353C031D652B2000A822A822A8224B
:1006C000A822A822B722BA2C23004808063C031906
:1006D0006D2B4808363C031D762B20009922A8225A
:1006E000A822A822A822B722BA2C23004808073C37
:1006F00003197E2B4808373C031D872B20009922C5
:100700009922A822A822A822B722BA2C230048089E
:10071000083C03198F2B4808383C031D982B2000F8
:10072000992299229922A822A822B722BA2C230022
:100730004808093C0319A02B4808393C031DA92B84
:1007400020009922992299229922A822B722BA2C14
:10075000230048080A3C0319B12B4808613C031DDB
:10076000B52B2000F222BA2C230048080B3C0319B9
:10077000BD2B4808623C031DC52B20009922A822EE
:10078000A822A822B722BA2C230048080C3C03193F
:10079000CD2B4808633C031DD12B2000D522BA2C59
:1007A000230048080D3C0319D92B4808643C031D5D
:1007B000DD2B2000FB22BA2C230048080E3C031935
:1007C000E52B4808653C031DE92B2000D222BA2CFA
:1007D000230048080F3C0319F12B4808663C031D11
:1007E000F92B2000A822A8229922A822B722BA2CED
:1007F00023004808673C031D042C200099229922FD
:10080000A822B722BA2C23004808683C031D0C2CF0
:100810002000DB22BA2C23004808693C031D162C5B
:100820002000A822A822B722BA2C230048086A3C3C
:10083000031D222C2000A822992299229922B72256
:10084000BA2C230048086B3C031D2A2C2000BF2231
:10085000BA2C230048086C3C031D322C2000E122F6
:10086000BA2C230048086D3C031D3C2C2000992223
:100870009922B722BA2C230048086E3C031D462C4F
:1008800020009922A822B722BA2C230048086F3CE6
:10089000031D4E2C2000E722BA2C23004808703C90
:1008A000031D562C2000EC22BA2C23004808713C72
:1008B000031D622C200099229922A8229922B72296
:1008C000BA2C23004808723C031D6A2C2000F62233
:1008D000BA2C23004808733C031D752C2000A82265
:1008E000A822A822B722BA2C23004808743C031D72
:1008F0007D2C2000CF22BA2C23004808753C031D14
:10090000852C2000CA22BA2C23004808763C031DFF
:10091000912C2000A822A822A8229922B722BA2C22
:1009200023004808773C031D9C2C2000A822992214
:100930009922B722BA2C23004808783C031DA82C22
:1009400020009922A822A8229922B722BA2C23009B
:100950004808793C031DB02C2000C422BA2C230087
:1009600048087A3C031DBB2C200099229922A8221A
:10097000A822B7222300200008002300BA01BB01EF
:10098000BC01BD01BE01BF01C001C101C201C30163
:10099000C401C501C601C7010430C800FA30E8002F
:1009A000200079202300C80BCE2C2000BF22C422B7
:1009B000CA22CF22D222D522DB2202302300C80055
:1009C000FA30E800200079202300C80BE02C20003A
:1009D000E122D222E722EC22F222F622FB2202308E
:1009E0002300C800FA30E800200079202300C80B5B
:1009F000F22C22006E08503C031D3E2D6F08F0398A
:100A0000F700770E2300BA000F30BA0522006F08F6
:100A10000F392300BB002008F039F700770EBC0027
:100A20000F30BC0520080F39BD002108F039F70050
:100A3000770EBE000F30BE0521080F39BF00220817
:100A4000F039F700770EC0000F30C00522080F39CB
:100A5000C1002308F039F700770EC2000F30C2053D
:100A600023080F39C3002408F039F700770EC400BB
:100A70000F30C40524080F39C500220023003A08AE
:100A8000C8002000002323003B08C80020000023EA
:100A900023003C08C8002000002323003D08C800B4
:100AA0002000002323003E08C8002000002323006C
:100AB0003F08C8002000002323004008C800200091
:100AC000002323004108C80020000023230042081F
:100AD000C8002000002323004308C8002000002392
:100AE00023004408C8002000002323004508C80054
:100AF0002000002308002300C1014108153C031C0D
:100B00008B2D143041078400203085000318850A9E
:100B10008001C10A7D2D2000CA0108008322BD2466
:100B20008F207B2590313C2F2300EE01ED01FF301B
:100B3000EC00EB002400A301A2018430A1000830E6
:100B4000A000AB01AA01A901A801AB08031D462E14
:100B5000AA08031D462EA908031D462E23006A0875
:100B6000240028020318462E4C302807F8002130B4
:100B7000293DFA0078082500C4007A08C500230042
:100B80006808240028078400230069082400293D00
:100B9000850000082500C60045088500440884003B
:100BA000460880002400A701A601A501A401A7080A
:100BB000031D3D2EA608031D3D2EA508031D3D2E39
:100BC0002408073C031C3D2E4C30280784002130AC
:100BD000293D8500000823006B062500C400230082
:100BE0006C082500C50023006D082500C600230001
:100BF0006E082500C700440801392300EF000310E8
:100C0000EE0CED0CEC0CEB0C6F0B162E24002008F8
:100C10002300EB06240021082300EC062400220810
:100C20002300ED06240023082300EE064C302400A8
:100C30002807F8002130293DFA0078082500C40073
:100C40007A08C5004C302400280784002130293D53
:100C500085000310000C2500C600450885004408E7
:100C600084004608800001302400A4070318A50A68
:100C70000319A60A0319A70AD72D0130A8070318DC
:100C8000A90A0319AA0A0319AB0AA52DFF302300EC
:100C9000EB06EC066B08F8006C08F9002000080071
:100CA0002300BD013D08093C031C982E2B303D0755
:100CB0008400203085000318850A0008423C031D8B
:100CC000962EBE013E08153C031C832E14303E07B1
:100CD000F8002030FA000318FA0A7808C0007A08F1
:100CE000C1003D083E072B3E8400203085000318DC
:100CF000850A0008C20041088500400884004208B7
:100D00008000BE0A622E2000A4012300C00140081A
:100D10001F3C031C952E2B3040078400203085009B
:100D20000318850A8001C00A872E982EBD0A522E0C
:100D300020003508AD003608CC3C031DB62E20300F
:100D40002300E9001430E800EA0020009425790827
:100D50002300BA007808B900200049082300BC002D
:100D6000200048082300BB00CC2E200020302300A8
:100D7000E9001430E8000C30EA00200094257908DE
:100D80002300BA007808B900200041082300BC0005
:100D9000200040082300BB003B083902031DD42E6D
:100DA0003C083A020319D62E0030D72E013020001D
:100DB000AE009031502F111EDB2E23009A00200030
:100DC00008004A30EB004730EC003630ED00593077
:100DD000EE004230EF0057302100A0003030A1007B
:100DE0004C30A2004530A3004F30A4005030A50085
:100DF0004130A6005230A7003030A8003E30A90094
:100E0000F030AA00AA30AB000330AC002000350857
:100E10002100AD00200036082100AE002000370878
:100E20002100AF00200038082100B0002000390860
:100E30002100B10020003A082100B20020003B0848
:100E40002100B30020003C082100B40020003D0830
:100E50002100B50020003E082100B60020003F0818
:100E60002100B700AA30B80020302300E9004B3041
:100E7000E8001E30EA002000942579082300C20013
:100E80007808C10041082100B90023004208210070
:100E9000BA008F1022008F1408302300C400FA30EB
:100EA000E800200079202300C40B4F2FC301430822
:100EB0001F3C031C6A2F4B30430784002030850001
:100EC0000318850A0008C40044082000DB2623001C
:100ED000C30A572F0230C400FA30E80020007920FE
:100EE0002300C40B6C2F21008F1022008F102000D4
:100EF0000800E1262300B90139081D3C031C8C2F92
:100F00005030BA00FA30E800200079202300BA0BF4
:100F1000822F6400B90A7C2F20007B2590315B2F43
:100F20003F082300B9003908783C031CAC2F20008F
:100F3000E1262300BA0139083A020318AB2F143016
:100F4000BB00FA30E800200079202300BB0BA12F62
:100F50006400BA0A9B2FB12F883120000020803115
:100F6000230020007B2590316D2F22008F146430E8
:100F70002300E8002000792022000F1164302300B4
:100F8000E8002000792022008F1164302300E8005F
:100F900020007920080020302400AE00AA01AB0117
:100FA000AC01AD012308FA002208F9002108F8007D
:100FB0002008F7000310771CEB2F2408AA07250848
:100FC0000318250FAB0726080318260FAC072708C0
:100FD0000318270FAD07AD0CAC0CAB0CAA0CFA0C28
:100FE000F90CF80CF70CAE0BDA2F20000800A50165
:080FF000E1267B259031E22F80
:101000004A30EB004730EC003630ED005930EE004E
:101010004230EF0057302100A0003030A1004C30AA
:10102000A2004530A3004F30A4005030A50041304D
:10103000A6005230A7003030A8003E30A900F030A2
:10104000AA00AA30AB000330AC0020003508210014
:10105000AD00200036082100AE006930AF00B000BE
:10106000B100B200B300B400B500B600B700AA30BA
:10107000B80020302300E9004B30E8001E30EA00C1
:10108000803120009425883179082300C100780838
:10109000C00040082100B900230041082100BA0027
:1010A0008F1022008F1408302300C300FA30E800AC
:1010B00080312000792088312300C30B5628C201DB
:1010C00042081F3C031C75284B3042078400203027
:1010D00085000318850A0008C300430880312000FA
:1010E000DB2688312300C20A60280230C300FA30B0
:1010F000E80080312000792088312300C30B772855
:1011000021008F1022008F102000080024002B08DF
:10111000083C03198F28AC00AA0DAC0B8C282100C9
:101120000F178F130F1222000F1224002B08AC0090
:10113000AA1B9D2822008F132400AA1FA228220088
:101140008F172400AA0D22000F16F80D20000F1F84
:1011500078100F1B781422000F122400AC0B982873
:10116000200008002400AC01AD01AE01F801F90136
:10117000FA012308A400AD01AE01F801F901FA015A
:101180002208A500AE01F801F901FA012108A60024
:10119000F801F901FA012008A70022008F1202309D
:1011A000F700F70BD128000013302400AA00083004
:1011B000AB002000862024002408AA000830AB00E1
:1011C0002000862024002508AA000830AB0020005B
:1011D000862024002608AA000830AB0020008620C4
:1011E00024002708AA000830AB0020008620013028
:1011F0002400AA000830AB002000862078082400D4
:10120000A80022008F1624002808F80020000800FB
:1012100024002B08083C03191129AC00AA0DAC0BC3
:101220000E2921000E168E128E1122008E1124001E
:101230002B08AC00AA1B1F2922008E122400AA1F13
:10124000242922008E162400AA0D22008E15F80DE6
:1012500020000E1E78100E1A781422008E11240021
:10126000AC0B1A29200008002400AC01AD01AE012E
:10127000F801F901FA012308A400AD01AE01F8015B
:10128000F901FA012208A500AE01F801F901FA01FD
:101290002108A600F801F901FA012008A7002200A0
:1012A0000E110230F700F70B532900001330240011
:1012B000AA000830AB002000082124002408AA005E
:1012C0000830AB002000082124002508AA000830BF
:1012D000AB002000082124002608AA000830AB003B
:1012E0002000082124002708AA000830AB002000B5
:1012F000082102302400AA000830AB002000082199
:1013000078082400A80022000E1524002808F80000
:10131000200008002300C908031DBF29CA08031DB7
:10132000BF29CB08031DBF29CC08031DBF2983108B
:101330004808EB004708EA004608E9004508E800CD
:10134000EF01EE01ED015130EC0080312000C120B1
:1013500088317A082300EB007908EA007808E90070
:101360007708E80001306807CF000030693DD00001
:1013700000306A3DD10000306B3DD200D329C50852
:10138000031DD329C608031DD329C708031DD3296C
:10139000C808031DD3294C08D2004B08D1004A08C5
:1013A000D0004908CF00D601D501D4010130D300C7
:1013B00056085202031C972B031DEE2955085102B3
:1013C000031C972B031DEE2954085002031C972B76
:1013D000031DEE2953084F02031C972B4A302100AE
:1013E000BB004730BC003630BD005930BE00423033
:1013F000BF005730C0003030C1004C30C200453013
:10140000C3004F30C4005030C5004130C6005230D8
:10141000C7003030C8003E30C900F030CA00FF308D
:10142000CB00F030CC00FF30CD0023005508210068
:10143000CE00230054082100CF00230053082100D0
:10144000D00023004D0BB12ADA01D901D8011630A2
:10145000D700DA08031DB12AD908031DB12AD8081C
:10146000031DB12A5708663C031CB12A6B3057078D
:10147000F8002030583DFA007808E8007A08E900C2
:1014800001305302F7000030543BF8000030553B68
:10149000F9000030563BFA00ED007908EC007808BE
:1014A000EB007708EA000508EF000408EE002400CE
:1014B000A301A201A1015130A00023006D08240066
:1014C000A70023006C082400A60023006B0824005A
:1014D000A50023006A082400A40080312000CB2747
:1014E000883123006F0885006E0884007708410763
:1014F000EA007808423DEB007908433DEC007A08A9
:10150000443DED005708EA075808EB3D5908EC3D0B
:101510005A08ED3D1630EA020030EB3BEC3BED3B68
:101520006D082400A30023006C082400A2002300FF
:101530006B082400A10023006A082400A0002000FA
:10154000B2202300690885006808840078088000BC
:101550000130D7070318D80A0319D90A0319DA0A80
:10156000292ACD08031D412BDE01DD01DC011630E7
:10157000DB00DE08031D412BDD08031D412BDC08C9
:10158000031D412B5B08663C031C412B6B305B0742
:10159000F80020305C3DFA007808E8007A08E9009D
:1015A00001305302F7000030543BF8000030553B47
:1015B000F9000030563BFA00ED007908EC0078089D
:1015C000EB007708EA000508EF000408EE002400AD
:1015D000A301A201A1015130A00023006D08240045
:1015E000A70023006C082400A60023006B08240039
:1015F000A50023006A082400A40080312000CB2726
:10160000883123006F0885006E0884007708410741
:10161000EA007808423DEB007908433DEC007A0887
:10162000443DED005B08EA075C08EB3D5D08EC3DDE
:101630005E08ED3D1630EA020030EB3BEC3BED3B43
:101640006D082400A30023006C082400A2002300DE
:101650006B082400A10023006A082400A0002000D9
:101660003421230069088500680884007808800018
:101670000130DB070318DC0A0319DD0A0319DE0A4F
:10168000B92A2030E9006B30E8006730EA00803189
:1016900020009425883179082300E0007808DF00D5
:1016A0005F082200D200230060082200D30023003C
:1016B000E1016108683C031C6E2B6B3061078400FC
:1016C000203085000318850A0008E800680880318A
:1016D0002000DB2688312300E10A592B5308013909
:1016E000E800E901EA01EB01E808031D872BE9089E
:1016F000031D872BEA08031D872BEB08031D872B8F
:1017000003104E0DD3070030D43DD53DD63DDC301F
:10171000E800803120007920883101302300D30790
:101720000318D40A0319D50A0319D60AD8292000A8
:10173000080038082300BC00200039082300BB0043
:1017400020003A082300BA0020003B082300B9001B
:1017500020003C082300C00020003D082300BF00FB
:1017600020003E082300BE0020003F082300BD00EB
:1017700080312000B527883104302300C100FA30C1
:10178000E80080312000792088312300C10BBF2B75
:1017900020003708103C031DEA2B23003C08C4003E
:1017A0003B08C3003A08C2003908C100C801C7019C
:1017B000C601C5014008CC003F08CB003E08CA0066
:1017C0003D08C9000130CD00CE0020008A218031C3
:1017D0007B2588313708113C031D0B2C23003C0866
:1017E000C4003B08C3003A08C2003908C100C80160
:1017F000C701C601C5014008CC003F08CB003E0828
:10180000CA003D08C900CD010130CE0020008A2168
:1018100080317B25883102302300C100FA30E80096
:1018200080312000792088312300C10B0E2C8031BB
:1018300020008F208831080038082300BC002000D9
:1018400039082300BB0020003A082300BA0020001A
:101850003B082300B90020003C082300C000200002
:101860003D082300BF0020003E082300BE002000EA
:101870003F082300BD0080312000B52788310430A7
:101880002300C100FA30E80080312000792088313F
:101890002300C10B422C20003708133C031D6D2C84
:1018A00023003C08C4003B08C3003A08C2003908C2
:1018B000C1004008C8003F08C7003E08C6003D08F8
:1018C000C500CC01CB01CA01C9010130CD00CE0059
:1018D00020008A2180317B2588313708143C031D84
:1018E0008E2C23003C08C4003B08C3003A08C20009
:1018F0003908C1004008C8003F08C7003E08C600BC
:101900003D08C500CC01CB01CA01C901CD010130A0
:10191000CE0020008A2180317B25883102302300CF
:10192000C100FA30E800803120007920883123009E
:10193000C10B912C803120008F208831080038089D
:101940002300BD00200039082300BC0020003A0815
:101950002300BB0020003B082300BA0020003C0805
:101960002300C10020003D082300C00020003E08E5
:101970002300BF0020003F082300BE004A302100A2
:10198000BB004730BC003630BD005930BE0042308D
:10199000BF005730C0003030C1004C30C20045306D
:1019A000C3004F30C4005030C5004130C600523033
:1019B000C7003030C8003E30C900F030CA00FF30E8
:1019C000CB00F030CC00FF30CD00230040082100D8
:1019D000CE0023003F082100CF0023003E08210055
:1019E000D0002300390B812DC501C401C30116307D
:1019F000C200C508031D812DC408031D812DC30825
:101A0000031D812D4208663C031C812D6B3042076B
:101A1000F8002030433DFA007808D0007A08D10061
:101A200001303E02F70000303F3BF8000030403B01
:101A3000F9000030413BFA00D5007908D40078085D
:101A4000D3007708D2000508D7000408D600240088
:101A5000A301A201A1015130A000230055082400D8
:101A6000A700230054082400A600230053082400E4
:101A7000A500230052082400A40080312000CB27B9
:101A800088312300570885005608840077083A07F4
:101A9000D20078083B3DD30079083C3DD4007A0859
:101AA0003D3DD5004208D2074308D33D4408D43D0C
:101AB0004508D53D1630D2020030D33BD43BD53B50
:101AC00055082400A300230054082400A20023008A
:101AD00053082400A100230052082400A000200085
:101AE000B220230051088500500884007808800047
:101AF0000130C2070318C30A0319C40A0319C50A2F
:101B0000F92CB908031D112EC901C801C7011630EF
:101B1000C600C908031D112EC808031D112EC708D1
:101B2000031D112E4608663C031C112E6B30460720
:101B3000F8002030473DFA007808D0007A08D1003C
:101B400001303E02F70000303F3BF8000030403BE0
:101B5000F9000030413BFA00D5007908D40078083C
:101B6000D3007708D2000508D7000408D600240067
:101B7000A301A201A1015130A000230055082400B7
:101B8000A700230054082400A600230053082400C3
:101B9000A500230052082400A40080312000CB2798
:101BA00088312300570885005608840077083A07D3
:101BB000D20078083B3DD30079083C3DD4007A0838
:101BC0003D3DD5004608D2074708D33D4808D43DDF
:101BD0004908D53D1630D2020030D33BD43BD53B2B
:101BE00055082400A300230054082400A200230069
:101BF00053082400A100230052082400A000200064
:101C000034212300510885005008840078088000A2
:101C10000130C6070318C70A0319C80A0319C90AFD
:101C2000892D2030E9006B30E8006730EA00803110
:101C300020009425883179082300CB007808CA0059
:101C40004A082200D20023004B082200D3002300C0
:101C5000CC014C08683C031C3E2E6B304C078400C2
:101C6000203085000318850A0008D0005008803114
:101C70002000DB2688312300CC0A292EC830E8005A
:101C8000803120007920883108008031B5278831E3
:101C900004302300B900FA30E800803120007920B8
:101CA00088312300B90B4B2E20003708153C031D4B
:101CB000612E01302300B90020009F2480317B2554
:101CC00088313708163C031D6C2E2300B901200013
:101CD0009F2480317B25883102302300B900FA30FF
:101CE000E80080312000792088312300B90B6F2E65
:101CF000803120008F208831080022008F1242306E
:101D0000F700F70B812E000006302400AA000830EF
:101D1000AB002000862022008F1620000800230040
:101D2000DE01DF01E001F801F901FA015308D400F6
:101D3000DF01E001F801F901FA015208D500E001E4
:101D4000F801F901FA015108D600F801F901FA0188
:101D50005008D70020007D2622008F120230F700A5
:101D6000F70BB02E0000DC302400AA000830AB00D6
:101D700020008620230054082400AA000830AB006D
:101D800020008620230055082400AA000830AB005C
:101D900020008620230056082400AA000830AB004B
:101DA00020008620230057082400AA000830AB003A
:101DB000200086200230F700F70BDC2E0000220006
:101DC0008F160C302300DC00FA30E8008031200050
:101DD000792088312300DC0BE42E2000080023004A
:101DE000E301E401E501F801F901FA015808DA001C
:101DF000E401E501F801F901FA015708DB00E5010A
:101E0000F801F901FA015608DC00F801F901FA01BC
:101E10005508DD0020007D2622008F120230F700D9
:101E2000F70B102F000012302400AA000830AB007E
:101E30002000862023005A082400AA000830AB00A6
:101E40002000862023005B082400AA000830AB0095
:101E50002000862023005C082400AA000830AB0084
:101E60002000862023005D082400AA000830AB0073
:101E700020008620230059082400AA000830AB0067
:101E80002000862022008F1620000800230045082D
:101E9000D3004408D2004308D1004208D0002000FB
:101EA0008F262300CD01CC01CB01CA014D08490288
:101EB000031CAD2F031D6C2F4C084802031CAD2FD3
:101EC000031D6C2F4B084702031CAD2F031D6C2F05
:101ED00046084A020318AD2F4A084207D0004B08B3
:101EE000433DD1004C08443DD2004D08453DD30050
:101EF0004A084207D4004B08433DD5004C08443DF6
:101F0000D6004D08453DD7002400A3002300560805
:101F10002400A200230055082400A1002300540837
:101F20002400A0002000342178082300D4005308A6
:101F3000D8005208D7005108D6005008D5005408E0
:101F4000D9002000EF2601302300CA070318CB0A6E
:101F50000319CC0A0319CD0A562F2000080080313E
:101F6000E126883138082300BC002000390823000E
:101F7000BB0020003A082300BA0020003B082300E1
:101F8000B90020003C082300C00020003D082300C9
:101F9000BF0020003E082300BE0020003F082300B1
:101FA000BD003C08C5003B08C4003A08C30039081E
:101FB000C2004008C9003F08C8003E08C7003D08ED
:101FC000C600200046278031E126883180317B25FC
:101FD000883180318F2088319031E22F0130A50087
:101FE0008031E126883180317B2588319031E22FA4
:102000002300D301D201D101D001883120008F26D5
:1020100090312300D801D701D601D50120003E0818
:102020002300D90088312000EF2690312300D80109
:10203000D701D6010130D500200038082300D9008F
:1020400088312000EF2690312300D801D701D60136
:102050000230D500200039082300D9008831200043
:10206000EF2690312300D801D701D6010330D500E7
:1020700020003A082300D90088312000EF26903153
:102080002300D801D701D6010430D50020003B0839
:102090002300D90088312000EF2690312300D80199
:1020A000D701D6010530D50020003C082300D90017
:1020B00088312000EF2690312300D801D701D601C6
:1020C0000630D50020003D082300D90088312000CB
:1020D000EF2690318031E126903180317B2590319F
:1020E0009031E22F803183229031B80803198A2879
:1020F00022008F1578302300BA00FA30E8008031D2
:102100002000792090312300BA0B7D2822008F1106
:10211000B22820002300B9013908043C031CA1287F
:102120000130C100C2018031200064219031803132
:1021300024229031230034080C3C0319A128B90A49
:102140008C2880312000BD24903102302300BA0059
:10215000FA30E80080312000792090312300BA0B5A
:10216000A8282200803120008F20903180317B25EB
:1021700090319031E22F38082300BC00200039084C
:102180002300BB0020003A082300BA0020003B08CF
:102190002300B90020003E082300BE0020003F08B5
:1021A0002300BD00BF013F08043C031CEB280230A4
:1021B000C10020003C082300C200803120006421BF
:1021C0009031803124229031230034080C3C0319D3
:1021D000EB28BF0AD3282908663C031D1929803142
:1021E0002000E126903104302300C000FA30E800DE
:1021F00080312000792090312300C00BF6283D0863
:10220000C100C0013C08C5003B08C4003A08C30037
:102210003908C200C901C8013D08C7004008C6000E
:1022200088312000462790318031E12690311D29E8
:102230002300883120000020903180317B259031AF
:1022400080318F2090319031E22F38082300BC007C
:10225000200039082300BB0020003A082300BA0000
:1022600020003B082300B90020003E082300BE00E8
:1022700020003F082300BD00BF013F08043C031CB1
:1022800055290230C10020003C082300C2008031E3
:1022900020006421903180312422903123003408C1
:1022A0000C3C03195529BF0A3D292908663C031D2A
:1022B000C4293E08C1003D08C000C3015130C2001E
:1022C0001030C400F701FA01C10CC00C031C6E29C8
:1022D0004208F7070318FA0A4308FA07FA0CF70C42
:1022E000F90CF80CC40B64297908C1007808C00007
:1022F0003C08C5003B08C4003A08C3003908C200C6
:10230000C901C8014108C7004008C6008831200043
:10231000462790318031B527903104302300C0002A
:10232000FA30E80080312000792090312300C00B82
:1023300090293C08C4003B08C3003A08C200390891
:10234000C100C801C701C601C501CC01CB013E08CF
:10235000CA003D08C9000130CD00CE008831200000
:102360008A21903102302300C000FA30E800803129
:102370002000792090312300C00BB5298031200046
:102380008F209031E829230080312000B52790313B
:1023900004302300C000FA30E800803120007920AA
:1023A00090312300C00BCB298831200000209031D0
:1023B00002302300C000FA30E8008031200079208C
:1023C00090312300C00BDB29803120008F20903119
:1023D00080317B2590319031E22F4A30EB0047303D
:1023E000EC003630ED005930EE004230EF0057304F
:1023F0002100A0003030A1004C30A2004530A300E5
:102400004F30A4005030A5004130A6005230A70044
:102410003030A8003E30A900F030AA00AA30AB004E
:102420000330AC00200035082100AD002000360844
:102430002100AE001430F8001D08833978049D0097
:102440000F30F8001F08F03978049F000D30F700B6
:10245000F70B282A9D149D182B2A1C08FA001B082C
:10246000F8001C08F90079082300BA007808B900C0
:10247000BE01BD01BC01BB01BF013F08633C031CA1
:10248000532A80312000A520903178082300BB0713
:102490007908BC3D0030BD3DBE3D8530F700F70BEF
:1024A0004F2ABF0A3D2A83103E08EB003D08EA0090
:1024B0003C08E9003B08E800EF01EE01ED01643063
:1024C000EC0080312000C120903178082300C10049
:1024D0007708C000200037082100AF00DD30B000D1
:1024E000230041082100B100230040082100B20070
:1024F000DD30B300B40023003A082100B50023000A
:1025000039082100B600DD30B700AA30B80020300D
:102510002300E9004B30E8001E30EA008031200043
:102520009425903179082300C3007808C20042083E
:102530002100B900230043082100BA008F102200B7
:102540008F1408302300C500FA30E80080312000E5
:10255000792090312300C50BA42AC40144081F3CF4
:10256000031CC32A4B304407840020308500031825
:10257000850A0008C500450880312000DB2690311F
:102580002300C40AAE2A0230C500FA30E8008031C8
:102590002000792090312300C50BC52A21008F101F
:1025A00022008F10803120007B2590319031E22F66
:1025B00038082300BC00200039082300BB0020009D
:1025C0003A082300BA0020003B082300B90020008D
:1025D0003E082300BE0020003F082300BD0020006D
:1025E0003D082300BF00C0014008043C031C0C2B25
:1025F0000230C10020003C082300C20080312000CE
:1026000064219031803124229031230034080C3C25
:1026100003190C2BC00AF42A0830C100FA30E80074
:1026200080312000792090312300C10B0E2B290826
:10263000663C031D552B80312000B52790310430B6
:102640002300C100FA30E800803120007920903169
:102650002300C10B222B3C08C4003B08C3003A08EE
:10266000C2003908C100C801C701C601C501CC01BB
:10267000CB013E08CA003D08C900CD013F08CE008D
:10268000883120008A21903102302300C100FA30C5
:10269000E80080312000792090312300C10B472BC6
:1026A000803120008F2090312300803120007B2555
:1026B00090319031E22F013023004302E0004208C4
:1026C000E1006008E200F701F801610803106218F8
:1026D000F707F70CF80CE218F707F70CF80C62197B
:1026E000F707F70CF80CE219F707F70CF80C621A69
:1026F000F707F70CF80CE21AF707F70CF80C621B57
:10270000F707F70CF80CE21BF707F70CF80CC801F9
:10271000C701C6017808C5002400A301A201A101D8
:102720005130A000230048082400A70023004708D8
:102730002400A600230046082400A5002300450825
:102740002400A40080312000CB279031770823009B
:102750003E07C90078083F3DCA007908403DCB00DC
:102760007A08413DCC00D001CF01CE010130CD002F
:10277000D008031D5A2DCF08031D5A2DCE08031D66
:102780005A2D4D084202031C5A2D4A302100BB002D
:102790004730BC003630BD005930BE004230BF006B
:1027A0005730C0003030C1004C30C2004530C3004B
:1027B0004F30C4005030C5004130C6005230C70011
:1027C0003030C8003E30C900F030CA00FF30CB00C6
:1027D000F030CC00FF30CD0023004F082100CE00A8
:1027E00023004E082100CF0023004D082100D00017
:1027F0002300440B8B2CD401D301D2011630D1001D
:10280000D408031D8A2CD308031D8A2CD208031D6B
:102810008A2C5108663C031C8A2C6B305107F80047
:102820002030523DFA007808E0007A08E1000130DB
:102830004D02F70000304E3BF80000304F3BF900EE
:102840000030503BFA00E5007908E4007808E30026
:102850007708E2000508E7000408E6002400A30169
:10286000A201A1015130A000230065082400A700A7
:10287000230064082400A600230063082400A500A8
:10288000230062082400A40080312000CB2790316F
:102890002300670885006608840077084907E2007E
:1028A00078084A3DE30079084B3DE4007A084C3D46
:1028B000E5005108E2075208E33D5308E43D54089F
:1028C000E53D1630E2020030E33BE43BE53B6508C2
:1028D0002400A300230064082400A200230063084E
:1028E0002400A100230062082400A00088312000F9
:1028F000B2209031230061088500600884007808C8
:1029000080000130D1070318D20A0319D30A031932
:10291000D40A002C1D2DC408031D1D2DD801D7017C
:10292000D6011630D500D808031D1D2DD708031D6C
:102930001D2DD608031D1D2D5508663C031C1D2D9D
:102940006B305507F8002030563DFA007808E0005B
:102950007A08E10001304D02F70000304E3BF800EC
:1029600000304F3BF9000030503BFA00E500790899
:10297000E4007808E3007708E2000508E7000408AF
:10298000E6002400A301A201A1015130A000230010
:1029900065082400A700230064082400A600230083
:1029A00063082400A500230062082400A4008031ED
:1029B0002000CB279031230067088500660884003B
:1029C00077084907E20078084A3DE30079084B3D63
:1029D000E4007A084C3DE5005508E2075608E33D5F
:1029E0005708E43D5808E53D1630E2020030E33B6D
:1029F000E43BE53B65082400A300230064082400B1
:102A0000A200230063082400A10023006208240020
:102A1000A000883120003421903123006108850016
:102A200060088400780880000130D5070318D60AB2
:102A30000319D70A0319D80A932C2030E9006B3008
:102A4000E8006730EA008031200094259031790851
:102A50002300DA007808D90059082200D2002300A8
:102A60005A082200D3002300DB015B08683C031CEA
:102A70004A2D6B305B078400203085000318850ADF
:102A80000008E000600880312000DB269031230040
:102A9000DB0A352DC830E8008031200079209031E4
:102AA00001302300CD070318CE0A0319CF0A0319FA
:102AB000D00AB82B2000080038082300BC002000F2
:102AC00039082300BB0020003A082300BA00200088
:102AD0003B082300B90080312000B5279031043035
:102AE0002300BD00FA30E8008031200079209031C9
:102AF0002300BD0B722D20003708403C031D992D8B
:102B000023003C08C1003B08C0003A08BF00390858
:102B1000BE0020003F082300C20020003E08230022
:102B2000C3000130C40020005B2380317B2590313D
:102B3000B42D3708413C031DB42D23003C08C100CF
:102B40003B08C0003A08BF003908BE0020003F081B
:102B50002300C20020003E082300C300C40120005F
:102B60005B2380317B25903102302300BD00FA3099
:102B7000E80080312000792090312300BD0BB72D73
:102B8000803120008F20903108003F0BC82DD02DC0
:102B90003F08053C0319D02D3F080A3C031DFF2DBB
:102BA0002300B9013908043C031CEA2D0230C1009E
:102BB00020003F082300C2008031200064219031B2
:102BC000803124229031230034080C3C0319EA2D73
:102BD000B90AD22D2908663C031DF32D803120004F
:102BE000E12690312300A908031DFB2D8831200028
:102BF000002090312300803120007B2590319031DE
:102C0000E22F38082300BC00200039082300BB0055
:102C100020003A082300BA0020003B082300B90036
:102C2000BD013D08043C031C292E0230C1002000D8
:102C30003C082300C20080312000642190318031A3
:102C400024229031230034080C3C0319292EBD0A9C
:102C5000112E80312000B527903104302300BE00B2
:102C6000FA30E80080312000792090312300BE0B3B
:102C7000302E3C08C1003B08C0003A08BF003908AC
:102C8000BE0020003F082300C20020003E082300B1
:102C9000C300C40120005B2380317B2590310230CA
:102CA0002300BE00FA30E800803120007920903106
:102CB0002300BE0B522E803120008F2090319031A6
:102CC000E22F2300B9013908043C031C772EC1010F
:102CD000C201803120006421903180312422903162
:102CE000230034080C3C0319772EB90A632E2908F7
:102CF000663C031D8E2E20308500EF3084000930A5
:102D0000F800203087001430860012001E00F80BF7
:102D1000852E80312000E12690312300A908031D73
:102D2000962E883120000020903123008031200031
:102D30007B2590319031E22FA4010130A500A6013E
:102D400023009F1522309B0000309C00A6309E007F
:102D500090309D0021008D1122008D1521008D10D5
:102D600022008D1421000F178F130F1222000F1253
:102D700021000E168E128E1122008E112000AE013F
:102D8000AF01B301B201B101B001CA0123008C014E
:102D90008D018E018F019001220092019101DF2EA1
:102DA0001634403434340034033401346D34003488
:102DB0000034003415344134A0340034003416306B
:102DC0008500D030840085171200F700003A0319FF
:102DD000F92E1200F800F81BF12E0F3987001200AF
:102DE0008600781B1200781F12001E00F70BF32ECE
:102DF000E42E803120004D289031253021009700AD
:102E0000640014302300B900FA30E800803120005B
:102E1000792090312300B90B042F803120008F20BE
:102E2000903180312E2990317908A8007808A700C8
:102E30002300B5013508043C031C2F2F0130C100CD
:102E4000C2018031200064219031803124229031F0
:102E5000230034080C3C03192F2FB50A1A2F25081C
:102E6000B600B60803193E2F2000A508031D3A2F0F
:102E700023003E2F80318E2D90312300640080315D
:102E800020008F2090312300B801B701B808031D3E
:102E9000F72F37083B3C031CF72F80312000502EC2
:102EA00090312D08533C03195C2F3608903C031DCC
:102EB0005C2F8031792F9031AE080319E22F2D0855
:102EC000533C0319672F2D08703C031DE22F360871
:102ED000773C031D6E2F8031902F90313708103AC8
:102EE0000319A92F013A0319AD2F023A0319B12F83
:102EF000073A0319B52F013A0319B92F033A0319F9
:102F0000BD2F013A0319C12F373A0319C52F013AD2
:102F10000319C72F033A0319C92F013A0319CB2FFD
:102F2000073A0319CF2F033A0319D32F173A03197E
:102F3000D52F053A0319D72F753A0319D92F013A1E
:102F40000319DB2F033A0319DD2F063A0319DF2F8C
:102F5000E12F883199239031E22F883199239031E4
:102F6000E22F88311C249031E22F88311C249031CB
:102F7000E22F883145269031E22F88314526903165
:102F8000E22F8831AF2F9031E22F0028E22F7228F4
:102F9000E22FBB28E22F8831EE2F9031E22F8031D3
:102FA000F72F9031E22F2529E22FED29E22FD82AA1
:102FB000E22F5C25E22F5C25E22FC52DE22F012EAA
:102FC000E22F612EA40180317B259031083023004F
:102FD000B900FA30E80080312000792090312300D8
:102FE000B90BE92F6400B70A0319B80A462F20006D
:042FF000112F63003A
:020000040001F9
:04000E00BA39231EBA
:00000001FF
;PIC16F1789
;CRC=0AC1  CREATED="09-8-24 10:02"
